:020000040800F2
:1000000040280020C512000895010008970100084B
:100010009B0100089F010008A301000800000000E8
:10002000000000000000000000000000A701000820
:10003000A901000800000000AB010008AD010008A4
:10004000DF120008DF120008DF120008DF120008CC
:10005000DF120008DF120008DF120008DF120008BC
:10006000DF120008DF120008DF120008DF120008AC
:10007000DF120008DF120008DF120008DF1200089C
:10008000DF120008DF120008DF120008DF1200088C
:10009000DF120008DF120008DF120008DF1200087C
:1000A000DF120008DF120008DF120008DF1200086C
:1000B000DF120008DF120008DF120008DF1200085C
:1000C000DF120008DF120008DF120008DF1200084C
:1000D000DF120008DF120008B5010008DF12000877
:1000E000DF120008DF120008DF120008DF1200082C
:1000F000DF120008DF120008DF120008DF1200081C
:10010000DF120008DF120008DF120008DF1200080B
:10011000DF120008DF120008DF120008DF120008FB
:10012000DF120008DF120008DF120008DF120008EB
:10013000DFF80CD002F074F80048004745010008D1
:100140004028002000F06CF900F0EEF900F058FAB9
:1001500000F06CFB00F084F90AA002F04BFA00F00A
:1001600048FD0DE04FF4FA6000F0BCF94FF47A70EE
:1001700000F0B8F900F03CFE4FF4FA7000F0B2F96C
:10018000F0E700000D0A20B2E2CAD4BFAACABC0D33
:100190000A000000704700BFFEE700BFFEE700BF97
:1001A000FEE700BFFEE770477047704710B500F0EC
:1001B000A9F910BD10B540F225511F4801F0FFFE0E
:1001C000E0B11D4801F064FEC4B21C48B0F800085C
:1001D000C0F30E0040F2FF7188420FDA1749B1F800
:1001E0000018C1F30E0000F10101144AB2F8002812
:1001F00061F30E021149A1F800280C5440F2244189
:100200000D4801F0DCFE012814D108210A4801F054
:10021000CCFE094801F03CFE0848B0F8000820F484
:10022000004000F500400549A1F80008024801F02F
:100230002FFEC4B210BD0000004400403C0000206E
:100240004FF0000108466D4A126842F480326B4B51
:100250001A6000BF694A126802F4003001F101011E
:1002600010B9B1F5A06FF5D1644A126812F4003FDD
:1002700002D04FF0010001E04FF00000012842D110
:100280005F4A126842F010025D4B1A601A4612680B
:1002900022F003021A601A46126842F002021A6043
:1002A000564A5268554B5A601A4652685A601A4666
:1002B000526842F480625A601A46526822F47C12F4
:1002C0005A601A46526842F4E8125A601A46126896
:1002D00042F080721A6000BF484A126812F0007F34
:1002E000FAD0464A526822F00302444B5A601A463A
:1002F000526842F002025A6000BF404A526802F05F
:100300000C02082AF9D1704710B5FFF799FF10BD0C
:1003100010B53A48006840F00100384908600846C6
:100320004068384900EA01003449486008460068DE
:10033000354900EA0100314908600846006820F4A8
:10034000802008600846406820F4FE0048604FF4B2
:100350001F008860FFF7D8FF4FF000602B4908604E
:1003600010BD10B54FF0000108460246234B5B68F4
:1003700003F00C0121B1042906D008292CD107E093
:10038000234B244C23602BE0214B224C236027E09D
:100390001A4B5B6803F47010184B5B6803F48032EF
:1003A0004FF0020303EB90402AB91B4B00FB03F311
:1003B000184C23600FE0114B5B6813F4003F05D02D
:1003C000154B00FB03F3134C236004E0104B00FBC0
:1003D00003F3104C236003E00D4B0E4C236000BF71
:1003E00000BF064B5B68C3F303130C4CE15C094B85
:1003F0001B6823FA01F3074C236010BD0010024074
:10040000002002400000FFF8FFFFF6FE08ED00E0CC
:1004100000127A000000002000093D0004000020C6
:1004200008B50121042001F049FB4FF00300ADF8AD
:1004300000004FF010008DF803004FF003008DF81E
:1004400002006946054801F02FF80121034801F038
:10045000E9F80221014801F0E3F808BD0008014075
:1004600030B52D4800684FF47A72B0FBF2F1B1F16B
:10047000807F02D34FF0010028E021F07F40A0F1FF
:1004800001004FF0E02250614FF0FF304FF00F02BB
:1004900000280ADA4FEA02734FEA13651F4B00F097
:1004A0000F04A4F104041D5505E04FEA02734FEA5E
:1004B00013641B4B1C5400BF4FF000004FF0E022B0
:1004C00090614FF0070010614FF0000008B100BFCD
:1004D000FEE74FF0E020006920F001004FF0E0213E
:1004E000086130BD0F4908604FF0E021096941F013
:1004F00001014FF0E022116100BF0A49096800299B
:10050000FBD170470748006828B106480068A0F191
:1005100001000449086070470000002018ED00E069
:1005200000E400E01400002000B585B0012144F291
:10053000040001F0C3FA4FF40070ADF810004FF062
:1005400018008DF813004FF003008DF8120004A975
:10055000294800F0A9FF4FF48060ADF810004FF07B
:1005600004008DF8130004A9234800F09DFF4FF408
:10057000E13000904FF00000ADF80400ADF8060047
:10058000ADF80800ADF80C004FF00C00ADF80A0013
:1005900069461A4801F04BFB012240F225511748E9
:1005A00001F0FCFB012240F22441144801F0F6FB6B
:1005B0000121124801F0E5FB05B000BD70B504460D
:1005C0000D46E1B20D4801F05FFC00BF80210B48F1
:1005D00001F0D0FC0028F9D0204670BD10B50446CB
:1005E00000BF2021054801F0C5FC0028F9D00348D0
:1005F00001F04EFC10BD0000000801400038014031
:1006000000B585B00121042001F058FA0121480409
:1006100001F063FA4FF00400ADF810004FF018003D
:100620008DF813004FF003008DF8120004A97D48E7
:1006300000F03AFF4FF00800ADF810004FF0040052
:100640008DF8130004A9774800F02EFF4FF41650E0
:1006500000904FF00000ADF80400ADF80600ADF8D2
:100660000800ADF80C004FF00C00ADF80A00694628
:100670006D4801F0DCFA012240F225516A4801F090
:100680008DFB012240F22441674801F087FB0121E4
:10069000654801F076FB05B000BDF0B503460D4698
:1006A00016464FF0000729460A2E03D03846087038
:1006B0002846F0BD43B94FF0300001F8010B4FF070
:1006C000000008702846F4E7002B05DA4FF02D00F3
:1006D00001F8010BC3F1000342F210720FE093FB2B
:1006E000F2F404B93FB104F1300001F8010B04FB4E
:1006F00012334FF001074FF00A0092FBF0F2002A8C
:10070000EDDC4FF0000008702846D2E70FB470B55A
:1007100086B006460CA801907BE00B9800785C2818
:100720001FD10B98401C0B9000786E280AD07228BD
:1007300011D10D21304601F0A7FB0B9800F101000B
:100740000B900DE00A21304601F09EFB0B9800F162
:1007500001000B9004E00B9800F101000B9000BF2A
:1007600050E00B980078252845D10B98401C0B9041
:10077000007864281AD0732837D1019810C80190E6
:100780000CE02178304601F07FFB00BF802130462D
:1007900001F0F0FB0028F9D004F1010420780028D2
:1007A000EFD10B9800F101000B9023E0019820C8D5
:1007B00001900A2202A92846FFF76FFF02AC0CE065
:1007C0002178304601F060FB00BF8021304601F007
:1007D000D1FB0028F9D004F1010420780028EFD1E2
:1007E0000B9800F101000B9004E00B9800F1010060
:1007F0000B9000BF06E00B9810F8011B0B903046E1
:1008000001F042FB00BF8021304601F0B3FB00281D
:10081000F9D00B98007800287FF47FAF06B070BC49
:100820005DF814FB000801400044004008B54FF497
:10083000A06000F059FD4FF026008DF800004FF049
:1008400000008DF801008DF802004FF001008DF8D6
:100850000300684600F04EFD08BD000010B50446D8
:10086000012C04D10121F74800F0DAFE03E0012158
:10087000F44800F0D7FE10BD10B50221F14800F099
:10088000D1FE4FF4FA70FFF72DFE0221ED4800F083
:10089000C7FE10BD2DE9F04106460C4615461F4621
:1008A000E948B0F800084FEAD0314FEAC131E648D4
:1008B000A0F800183246E5A1E648FFF727FF1CB96B
:1008C00015B90120BDE8F0813846FFF70BFE4FF067
:1008D0000001DD48B0F80008C0F30E00DA4A1154F8
:1008E0001146DDA001F086FEB4B1ADB12146D64877
:1008F00001F0C0FB08B1012000E0002040B929460A
:10090000D14801F0B7FB08B1012000E0002008B198
:100910000120D7E70020D5E744B12146CA4801F0BD
:10092000A9FB08B10120CDE70020CBE72946C64846
:1009300001F0A0FB08B10120C4E70020C2E710B518
:100940000221C04800F06CFE40F2DC50FFF7CAFD07
:1009500001E0FFF791FFC8230022C0A1C0A0FFF76C
:1009600099FF0028F5D010BD10B5044624B1012C24
:100970000AD0022C18D10FE040F6C413B9A2B7A1D7
:10098000BBA0FFF787FF10BD40F6C413B5A2B3A10B
:10099000BAA0FFF77FFFF6E740F6C413B1A2AFA1FC
:1009A000B9A0FFF777FFEEE70020ECE730B59FB086
:1009B00004460D462B462246B6A101A801F02AFEA8
:1009C00041F658330022A5A101A8FFF763FF1FB02D
:1009D00030BD70B5A0B004460D4616462B462246E3
:1009E000B1A102A8009601F015FE4FF47A7300221F
:1009F0009AA102A8FFF74EFF20B070BD10B586B0D7
:100A000004460CB1012000E000200246ACA101A880
:100A100001F000FE4FF4FA73002290A101A8FFF745
:100A200039FF06B010BDF0B5B9B006460F46144602
:100A30001D464FF0640120A801F010FB16B1012EF5
:100A400010D107E03B46A2A2A2A120A8009401F089
:100A5000E1FD08E03B46A3A29EA120A8009401F07E
:100A6000D9FD00E000BF00BF052D06DA20AB2A4605
:100A70009DA102A801F0CEFD04E020AA9FA102A83A
:100A800001F0C8FD4FF4FA73A0A274A102A8FFF709
:100A900001FF39B0F0BD70B5BCB004460D46164636
:100AA000FCB12B4601229DA11EA801F0B3FD3246E8
:100AB0009FA1684601F0AEFD4FF4FA73002267A1D2
:100AC0001EA8FFF7E7FE50B14FF4FA73002263A1AE
:100AD0006846FFF7DFFE10B101203CB070BD00207A
:100AE000FBE72B4600228DA11EA801F093FD4FF4D9
:100AF000FA73002259A11EA8FFF7CCFEEDE710B54E
:100B00004FF4FA73002255A18DA0FFF7C3FE48B140
:100B10004FF4FA738EA28FA18FA0FFF7BBFE08B12E
:100B2000012010BD0020FCE72DE9F04186B007460A
:100B30000C4615461E464FF000082FB1224646A12E
:100B40004448FFF7E3FD1CE0052E06DAAB1C3246F5
:100B500084A101A801F05EFD04E0AA1C86A101A801
:100B600001F058FD4FF47A73002287A101A8FFF726
:100B700091FE4FF47A73002284A12046FFF78AFE8B
:100B80008046404606B0BDE8F08170B504464FF09F
:100B900000052D48B0F800084FEAD0314FEAC131C6
:100BA0002948A0F80018B0F8000820F400412648B1
:100BB000A0F8001800BF2448B0F80008C00BFAD015
:100BC0004FF000012048B0F80008C0F30E001E4AA4
:100BD000115434B15EA1104601F04CFA38B11A4DEF
:100BE00005E06CA1184801F045FA00B1164D284601
:100BF00070BD70B59CB04FF0640103A801F02EFAEF
:100C00004FF000064FF00100FFF728FEFFF797FEB8
:100C10000020FFF7A9FE41F2883300220FA15FA058
:100C2000FFF738FE00BF604801F0E4FC03A90AA00A
:100C300001F058FA5DA001F0DDFC03AD4FF00006B5
:100C4000C7E00000000801403C00002025730D0AA9
:100C50000000000000440040257300004F4B0000DE
:100C6000415400006E6F206368616E67650000008C
:100C700041542B43574D4F44453D310041542B4384
:100C8000574D4F44453D320041542B43574D4F443F
:100C9000453D330041542B43574A41503D22257373
:100CA000222C22257322000041542B4357534150DC
:100CB0003D222573222C222573222C312C257300F2
:100CC00041542B4349504D55583D256400000000C8
:100CD00054435000222573222C222573222C257385
:100CE000000000005544500041542B4349505354D8
:100CF0004152543D25642C257300000041542B4380
:100D0000495053544152543D25730000414C5245C3
:100D1000415920434F4E4E454354000041542B430C
:100D200049505345525645523D25642C25730000C9
:100D300041542B43495053544F3D2573000000004C
:100D400041542B4349504D4F44453D310000000074
:100D50003E0000000D0A000041542B43495053450A
:100D60004E44000041542B43495053454E443D25C9
:100D7000642C25640000000041542B434950534526
:100D80004E443D25640000003E20000053454E4483
:100D9000204F4B002B4950440000000041542B438E
:100DA000574C4150000000001C2800080D0AC9D40F
:100DB000B5C8C6ACBFCC20A1ADA1AD0D0A000000E6
:100DC000304606F10101CEB201A941F820404FF0B2
:100DD0000005CDA1284601F063F90400F0D1DDE95A
:100DE0000101FFF7E3FD00283FF41DAF1CB070BD0B
:100DF00070B54FF4FA730022AFF2A011C3A0FFF751
:100E000049FD4FF47A70FFF76DFB00BFC248B0F8A0
:100E100000084FEAD0314FEAC131BF48A0F80018AE
:100E20004FF0000406E04FF00000BB49085504F104
:100E3000010084B2B4F5006FF5DBB8A2AFF2F41193
:100E4000C048FFF763FC4FF47A70FFF74BFB4FF09D
:100E50000001B148B0F80008C0F30E00AE4A1154CA
:100E60001146AFF20C2001F0C5FBAFF21021AA48E9
:100E700001F000F908B1012600E00026AFF274117C
:100E8000A54801F0F7F810B14FF0010001E04FF074
:100E9000000046EA0005ACA19F4801F0EBF808B15C
:100EA000012000E0002008B14FF00005002DADD07A
:100EB0004FF4FA730022AFF25C21AFF27C10FFF71F
:100EC000E9FC4FF4FA73AFF27812AFF27811AFF297
:100ED0007810FFF7DFFC052300229DA10120FFF71A
:100EE00023FE05230022A7A10120FFF71DFE0523F5
:100EF0000022ABA10120FFF717FE05230022ADA1C0
:100F00000120FFF711FE05230022A4A10120FFF715
:100F10000BFE8148B0F800084FEAD0314FEAC131EA
:100F20007D48A0F800184FF49660FFF7DBFA4FF009
:100F300000017948B0F80008C0F30E00764A115459
:100F40001146AFF2EC2001F055FB70BD70B59AB0C0
:100F500005464FF0640101A801F080F8012D02D090
:100F6000022D0CD105E098A2A2A101A801F052FB2C
:100F700006E0ACA29FA101A801F04CFB00E000BF7D
:100F800000BF4FF4FA730022AFF230315FA0FFF7D9
:100F900081FC4FF4FA70FFF7A5FA00BF5E48B0F885
:100FA00000084FEAD0314FEAC1315B48A0F8001881
:100FB0004FF0000406E04FF000005749085504F1D7
:100FC000010084B2B4F5806FF5DBA1A2AFF28431E9
:100FD0005C48FFF79BFB4FF47A70FFF783FA4FF002
:100FE00000014D48B0F80008C0F30E004A4A115401
:100FF0001146AFF29C3001F0FDFAAFF2A031464845
:1010000001F038F808B1012000E0002048B9AFF243
:101010000431414801F02EF808B1012000E0002021
:1010200010B14FF0010001E04FF00000064646A16C
:10103000394801F01FF808B1012000E0002008B194
:101040004FF00006002EA9D04FF4FA730022AFF241
:10105000F431AFF21430FFF71DFC4FF4FA73AFF226
:1010600010324EA1AFF21030FFF714FC052300221E
:1010700001A90120FFF758FD052300227EA10120D0
:10108000FFF752FD0523002245A10120FFF74CFD8B
:10109000052300227FA10120FFF746FD0523002242
:1010A00044A10120FFF740FD052300223BA10120C0
:1010B000FFF73AFD1848B0F800084FEAD0314FEA80
:1010C000C1311548A0F8001840F6B830FFF70AFA09
:1010D0004FF000011048B0F80008C0F30E000E4AAF
:1010E00011541146AFF2904001F084FA2BA001F0A8
:1010F00081FAAFF29841084800F0BCFF10B16BA034
:1011000001F078FA1AB070BD2C00000041542B4356
:1011100049504D55583D30003C00002041542B4370
:10112000495053544152543D22544350222C2231B1
:1011300039322E3136382E3139312E32222C383098
:1011400038300000004400404552524F5200000029
:10115000474554202F4C69627261727953656174FE
:101160005365727665722F73656174496E666F3F61
:10117000726F6F6D3D3120485454502F312E310D18
:101180000A000000486F73743A203139322E31362C
:10119000382E3139312E323A383038300D0A0000CD
:1011A000557365722D4167656E743A206162630DF7
:1011B0000A000000436F6E6E656374696F6E3A20BB
:1011C000636C6F73650D0A007573723D6A756E65A9
:1011D0002670617373776F72643D31393932303202
:1011E0003131267265715F747970653D535749508E
:1011F00045000000474554202F4C696272617279A6
:10120000536561745365727665722F757372496E9A
:10121000666F3F257320485454502F312E310D0AEC
:10122000000000007573723D736F6C61722670610F
:101230007373776F72643D31393932303231312610
:101240007265715F747970653D5357495045000070
:1012500041542B43495053544152543D225443501E
:10126000222C223139322E3136382E3139312E337B
:10127000222C383038300000486F73743A203139EE
:10128000322E3136382E3139312E333A383038302B
:101290000D0A0000436F6E74656E742D4C656E67A9
:1012A00074683A2033380D0A000000006C6F672024
:1012B000696E207375636365737366756C6C790D05
:1012C0000A0000000648804706480047FEE7FEE7A0
:1012D000FEE7FEE7FEE7FEE7FEE7FEE7FEE7FEE7E6
:1012E0001103000831010008384940EA0101384A79
:1012F0001160704770B54FF000010B464FF00F02C0
:10130000C4784CB3324C246804F4E064C4F5E0645F
:101310004FEA1421C1F1040322FA01F2447804FADD
:1013200003F1847804EA020444EA01014FEA01115E
:10133000284C0678A155047804F01F054FF00104ED
:1013400004FA05F405784FEA65154FF0E02606EB40
:101350008505C5F800410CE0047804F01F054FF046
:10136000010404FA05F41C4D06784FEA661645F8A8
:10137000264070BD194A01EA020242EA0002184BF7
:101380001A60704731B1174A126842EA0002154BE1
:101390001A6005E0134A126822EA0002114B1A6033
:1013A0007047042808D14FF0E021096941F0040199
:1013B0004FF0E022116107E04FF0E021096921F0D0
:1013C00004014FF0E0221161704700000000FA05AF
:1013D0000CED00E000E400E080E100E080FFFF1F92
:1013E00008ED00E010ED00E010B50446DE48844250
:1013F00008D10121042000F07FFB0021042000F02F
:101400007BFB46E0D948844208D10121082000F046
:1014100073FB0021082000F06FFB3AE0D4488442BF
:1014200008D10121102000F067FB0021102000F0FE
:1014300063FB2EE0CF48844208D10121202000F038
:101440005BFB0021202000F057FB22E0CA488442C9
:1014500008D10121402000F04FFB0021402000F086
:101460004BFB16E0C548844208D10121802000F0E2
:1014700043FB0021802000F03FFB0AE0C04884428B
:1014800007D10121801500F037FB0021A01500F0E5
:1014900033FB10BD10B50121084600F02DFB0021E3
:1014A000012000F029FB10BD2DE9F04102464FF06C
:1014B00000052E46284603460446074691F803C019
:1014C0000CF00F0591F803C01CF0100F03D091F839
:1014D00002C04CEA0505B1F800C01CF0FF0F35D082
:1014E00014684FF000002EE04FF0010C0CFA00F3EE
:1014F000B1F800C00CEA03069E4222D14FEA8003F5
:101500004FF00F0C0CFA03F724EA070405FA03FC6A
:101510004CEA040491F803C0BCF1280F06D14FF047
:10152000010C0CFA00FCC2F814C00AE091F803C0E8
:10153000BCF1480F05D14FF0010C0CFA00FCC2F8C9
:1015400010C000F101000828CED31460B1F800C02B
:10155000BCF1FF0F38DD54684FF0000031E000F1BE
:10156000080C4FF0010808FA0CF3B1F800C00CEABF
:1015700003069E4223D14FEA80034FF00F0C0CFA72
:1015800003F724EA070405FA03FC4CEA040491F883
:1015900003C0BCF1280F05D100F1080C08FA0CF8C3
:1015A000C2F8148091F803C0BCF1480F07D100F1D4
:1015B000080C4FF0010808FA0CF8C2F8108000F18E
:1015C00001000828CBD35460BDE8F0814FF6FF71CD
:1015D00001804FF0020181704FF00401C17070472B
:1015E00002464FF0000093680B4202D04FF001001A
:1015F00001E04FF0000070470146886880B27047F4
:1016000002464FF00000D3680B4202D04FF00100B9
:1016100001E04FF0000070470146C86880B2704793
:1016200001617047416170470AB1016100E04161A9
:101630007047C16070474FF4803242EA0102826114
:101640008161826182698269704702464FF00000C1
:101650004C4B18684FF6807300EA030040EA021012
:1016600040EA0100474B186070474749C86170471E
:10167000F0B50A464FF000031C4619460D4600F02F
:101680000046B6F1004F02D13E4EF16901E03D4EF9
:101690007168C0F3034583B200F44016B6F5401FED
:1016A00008D121F07061374E766826F07066354FAC
:1016B0007E6017E000F48016B6F5801F08D14FF069
:1016C000030606FA05F421EA040141F0706109E01D
:1016D0004FEA50564FEA061603FA06F621EA0601CB
:1016E00041F070613AB14FEA50564FEA061603FADC
:1016F00006F646EA010100F00046B6F1004F02D1BD
:10170000204EF16101E01F4E7160F0BD30B54FF029
:1017100000024FEA81734FEA13744FF00F0303FA8C
:1017200004F21A4B4FEAA10453F8243023EA0203CF
:10173000164C4FEAA10544F8253023464FEAA10490
:1017400053F824304FEA81744FEA147400FA04F419
:1017500043EA04030D4C4FEAA10544F8253030BD9F
:101760000B4908607047000000080140000C014070
:10177000001001400014014000180140001C01400D
:10178000002001400000014000002042080001400C
:10179000DC002042F748006840F00100F54908608D
:1017A00008464068F44900EA0100F24948600846EA
:1017B0000068F24900EA0100EE4908600846006846
:1017C00020F4802008600846406820F4FE0048604D
:1017D0004FF41F0088607047E649096821F48031A2
:1017E000E44A11601146096821F480211160B0F5C6
:1017F000803F03D0B0F5802F0ED106E0DD490968A7
:1018000041F48031DB4A116007E0DA49096841F4AC
:10181000A021D84A116000E000BF00BF704710B59A
:1018200001464FF00002134610464FEA6112012AAA
:1018300002D1D04C236806E0022A02D1CD4C236AA3
:1018400001E0CC4C636A01F01F024FF0010404FA7E
:1018500002F41C4202D04FF0010001E04FF0000002
:1018600010BD70B54FF000042546264600BF31205C
:10187000FFF7D5FF064604F10104B4F5A06F01D0CF
:10188000002EF4D03120FFF7CAFF10B14FF0010550
:1018900001E04FF00005284670BD01464FF0000002
:1018A000B44A106820F0F80040EAC10010607047A8
:1018B000B3490860704702464FF00000AD4B5868CE
:1018C00020F47C1042EA010343EA0000A94B58606F
:1018D0007047AB490866704701464FF00000A54AC3
:1018E000506820F0030040EA010050607047A148B2
:1018F000406800F00C00704701464FF000009D4A20
:10190000506820F0F00040EA010050607047014646
:101910004FF00000974A506820F4E06040EA010070
:101920005060704701464FF00000924A506820F422
:10193000605040EAC1005060704731B18D4A527A20
:1019400042EA00028B4B5A7208E08A4A527A6FEAE6
:101950000003DBB202EA0302864B5A7270478949E0
:101960000860704701464FF00000824A506820F43A
:10197000404040EA0100506070474FF00001824A49
:1019800011707C4A82F82010012802D004280AD164
:1019900004E04FF001017C4A117005E04FF00501B1
:1019A000794A117000E000BF00BF704777490860B6
:1019B00070477049096A41EA00016E4A1162704736
:1019C00073490860704730B54FF000010A460C4675
:1019D0000B46684D6D6805F00C0121B1042905D056
:1019E000082927D105E06B4D056026E0694D0560AB
:1019F00023E0604D6D6805F470125E4D6D6805F46E
:101A000080344FF0020505EB924224B9624D02FB8F
:101A100005F505600DE0574D6D6815F4003F04D0E5
:101A20005D4D02FB05F5056003E05A4D02FB05F52F
:101A3000056002E0574D056000BF00BF4D4D6D6869
:101A400005F0F0014FEA1111544D6B5C056825FA61
:101A500003F54560474D6D6805F4E0614FEA1121DB
:101A60004E4D6B5C456825FA03F58560414D6D6808
:101A700005F460514FEAD121484D6B5C456825FA69
:101A800003F5C5603B4D6D6805F440414FEA913167
:101A9000434D6B5CC568B5FBF3F5056130BD31B1F5
:101AA000344A526942EA0002324B5A6105E0314A37
:101AB000526922EA00022F4B5A61704731B12D4A18
:101AC000926942EA00022B4B9A6105E0294A926929
:101AD00022EA0002274B9A61704731B1254AD26948
:101AE00042EA0002234BDA6105E0224AD26922EA87
:101AF0000002204BDA61704731B11E4AD26842EAD7
:101B000000021C4BDA6005E01A4AD26822EA0002A1
:101B1000184BDA60704731B1164A126942EA000286
:101B2000144B1A6105E0134A126922EA0002114BB4
:101B30001A6170471B49086070471149C8647047B3
:101B40000C49C87170470B48406A40F080700949E1
:101B50004862704701464FF00000064A92680A4208
:101B600002D04FF0010001E04FF000007047014942
:101B700088727047001002400000FFF8FFFFF6FE79
:101B800000004242D80042422010024080044242FB
:101B90003C04424200127A0000093D001800002077
:101BA000280000204004424210B50446F848844210
:101BB00009D101218803FFF79FFF00214FF48040E6
:101BC000FFF79AFF32E0F348844209D1012148042B
:101BD000FFF7A1FF00214FF40030FFF79CFF25E045
:101BE000ED48844209D101218804FFF794FF0021C8
:101BF0004FF48020FFF78FFF18E0E848844209D1B6
:101C00000121C804FFF787FF00214FF40020FFF7F0
:101C100082FF0BE0E248844208D101210805FFF76A
:101C20007AFF00214FF48010FFF775FF10BD2DE9FA
:101C3000F04786B005460E464FF00004A24600BFAE
:101C4000A1462746B08900B100BF2F462C8A4CF62A
:101C5000FF7004EA0004F08840EA04042C82AC8996
:101C60004EF6F31004EA0004B088318940EA01001E
:101C7000718940EA010040EA0404AC81AC8A4FF665
:101C8000FF4004EA0004B08940EA0404AC8201A8E1
:101C9000FFF799FEBE48874202D1DDF810A001E0AF
:101CA000DDF80CA0A88910F4004F09D00AEBCA0097
:101CB00000EB0A1031684FEA4101B0FBF1F808E08F
:101CC0000AEBCA0000EB0A1031684FEA8101B0FB51
:101CD000F1F84FF06400B8FBF0F04FEA00144FEA5F
:101CE00014104FF0640101FB1089A88910F4004F13
:101CF0000AD04FF0320000EBC900B0FBF1F000F069
:101D0000070040EA04040BE04FF0320000EB09103A
:101D10004FF06401B0FBF1F000F00F0040EA040462
:101D20002C8106B0BDE8F0874FF4165101604FF0EA
:101D300000018180C18001814FF00C0141814FF091
:101D400000018181704710B502464FF00000108AF3
:101D50004FF2FF0300EA03000B884C8843EA0403B8
:101D60008C8843EA0403CC8843EA040343EA000076
:101D7000108210BD4FF00001018041808180C18040
:101D8000704721B1828942F40052828105E0828944
:101D90004DF6FF7302EA030282817047F0B50346F5
:101DA0004FF00004264625462046A1F510676A3FFD
:101DB00000D100BF1846C1F3421401F01F064FF0D6
:101DC000010707FA06F5012C02D100F10C0006E02C
:101DD000022C02D100F1100001E000F1140022B148
:101DE000076847EA0507076003E0076827EA050771
:101DF0000760F0BD10B522B1838A43EA01038382F4
:101E000006E0838A6FEA0104A4B203EA0403838232
:101E100010BD028A4FF6F07302EA03020282028AC0
:101E200042EA01020282704782894FF2FF7302EA9E
:101E300003028281828942EA01028281704721B1D4
:101E4000828942F00202828105E082894FF6FD73A9
:101E500002EA030282817047028A4FF6DF7302EAC8
:101E600003020282028A42EA01020282704721B121
:101E7000028A42F48042028205E0028A4BF6FF7336
:101E800002EA030202827047C1F3080282807047AF
:101E900001468888C0F308007047818941F001013C
:101EA00081817047028BD2B20283028B42EA012207
:101EB00002837047028B02F47F420283028B42EA64
:101EC00001020283704721B1828A42F0200282829D
:101ED00005E0828A4FF6DF7302EA030282827047CE
:101EE00021B1828A42F01002828205E0828A4FF696
:101EF000EF7302EA03028282704721B1828A42F0C4
:101F00000802828205E0828A4FF6F77302EA030232
:101F10008282704721B1828942F40042828103E0CB
:101F20008289C2F30E028281704721B1828A42F413
:101F30000062828205E0828A4FF2FF7302EA0302A6
:101F400082827047828A4FF6FB7302EA0302828222
:101F5000828A42EA01028282704721B1828A42F07B
:101F60000202828205E0828A4FF6FD7302EA0302D2
:101F70008282704702464FF00000B1F5007F00D129
:101F800000BF13880B420DD04FF001000CE00000A1
:101F9000003801400044004000480040004C004030
:101FA000005000404FF00000704701F40072B2F59D
:101FB000007F00D100BF6FEA01020280704770B558
:101FC00002464FF0000423461D461846A1F5106650
:101FD0006A3E00D100BFC1F3421501F01F034FF06C
:101FE000010606FA03F3012D03D1968906EA0303DD
:101FF00008E0022D03D1168A06EA030302E0968A5E
:1020000006EA03034FEA21244FF0010606FA04F41E
:10201000168806EA04041BB114B14FF0010001E078
:102020004FF0000070BD10B54FF000021346A1F54F
:1020300010646A3C00D100BF4FEA21224FF0010436
:1020400004FA02F4A3B26FEA0304048010BDD2B212
:1020500001E000F8012B491EFBD270470022F6E791
:1020600010B504460846114602462046FFF7EFFF2A
:10207000204610BD30B50EE003460A4601E05B1C69
:10208000521C1C781578AC4201D1002CF7D115F008
:10209000FF0F04D0401C0278002AEDD1002030BD93
:1020A00070B50F4D00B92868002412E00A4602E01E
:1020B0009E4203D0521C1378002BF9D1DAB222438E
:1020C00005D02BB124B1002100F8011B04E0044627
:1020D000401C0678002EE9D12860204670BD000023
:1020E0002C0000200FB400B589B00BA800906A4600
:1020F00003480A9900F08AF809B05DF814FB000063
:10210000300000202DE9FF5FD2E901B80027916976
:1021100014469946DDF838A03E46019888470546A2
:1021200059EA0A0005D009E0A169761C01988847A0
:102130000546216A284688470028F5D1681C03D047
:102140005FEACB7005D015E04FF0FF3004B0BDE87A
:10215000F09F2068011D216007680BE05FEACB70EB
:1021600001D107F8015BA169A8F10108761C01986B
:1021700088470546B8F1000F1ADD681C18D0B9F180
:10218000000F0DD0E81705EBD060421120F01F00C2
:1021900059F822102A1A012090400142DED107E0AE
:1021A000BAF1000FDAD1216A284688470028D5D035
:1021B000E169019888470BF0010050EA0A0000D15C
:1021C0003870A168414505DDBAF1000F05D0B8F1BE
:1021D000000F02D06FF00100B8E73046B6E730B527
:1021E0000B46014600202022012409E021FA02F5D5
:1021F0009D4205D303FA02F5491B04FA02F528446F
:10220000151EA2F10102F1DC30BD0000024B93610A
:10221000024BD36100F032B8DD05000861220008EE
:10222000064C074D06E0E06840F0010394E8070023
:1022300098471034AC42F6D3FDF77EFFC028000863
:10224000E0280008094910B508784C1C18B1401E58
:102250000870205C10BD00210720ABBE207010BDAF
:1022600002490878421C0A707047000038000020BC
:102270000268114413780160184670470B461146F6
:10228000044A4A61044A0A620022C1E9033200F0AA
:102290000BB80000712200089D2200084FF4F05195
:1022A000C0B200F093B900002DE9F34F8BB04FF0AE
:1022B000000801F10C000C464FF0010B46460DF1F1
:1022C000080A0190626901210198904705002DD00C
:1022D000252D2CD0216A8847C0B16269012101985F
:1022E0009047216A88470028F7D1411E626901980A
:1022F000904700E0761CA1690B988847216A8847BF
:102300000028F7D1E1690B988847DBE7A1690B98B2
:1023100088470746A84201D1761CD3E7E1690B98AC
:1023200088477F1C02D1B8F1000F6FD042E100272F
:1023300062693D463946019890472A2804D162696E
:102340000121019890470125DFF87C926269012103
:1023500001989047A0F130010A290AD24F45E5DCE7
:1023600007EB870100EB4107303FDFD445F0100554
:10237000ECE7E90601D46FF000476C280AD04C283E
:1023800014D0682815D06A280DD074281CD07A285B
:102390001AD01DE062690121019890476C2802D093
:1023A00045F0040514E045F002050DE045F0200578
:1023B0000AE06269012101989047682802D045F03F
:1023C000080505E045F40065626901210198904720
:1023D000C4E9015765283DD019DC582879D00CDCB8
:1023E000452837D004DC252826D0412831D131E0DA
:1023F00046282FD047282CD12CE05B287FD061289D
:1024000028D063287BD0642823D159E0CCE06F2802
:1024100047D008DC66281DD067281BD0692821D04A
:102420006E2816D127E0702844D0732867D075280D
:1024300046D078280DD14CE0A1690B988847054615
:1024400025283FF469AFE1690B9888476D1C3FF47C
:102450006AAFAFE023466A466FF001000B99AFF315
:1024600000809AE045F040006060A80723464FF0E6
:10247000000235D43DE0206800F1040121600068CD
:10248000290501D506701DE7290701D5068019E742
:10249000A90704D54FEAE671C0E9006112E70660BA
:1024A00010E745F040006060A80723464FF008029F
:1024B00016D41EE040F60E0125EA0100606016E029
:1024C00045F040006060A80723464FF00A0207D499
:1024D0000FE045F040006060A80708D523461022B1
:1024E0006FF001000B99AFF3008056E007E0234640
:1024F00010226FF001000B99AFF300804DE0002730
:10250000B9463B46632802D05B2807D03DE0E80689
:1025100001D40120A0604FF0010936E06269012179
:10252000019890475E2804D10127626939460198D5
:102530009047216931B90023524642F82130491CA5
:102540000829FADBA8B3216969B9C11700EBD16387
:102550005A110AEB820123F01F03C31A01200A68F3
:10256000984002430A6062690121019890475D2802
:10257000E8D14FB10020514651F82020D24341F814
:102580002020401C0828F7DB02AB2246CDF8009043
:102590006FF001000B99FFF7B5FD00280CDA401C25
:1025A00008D1BBF1000F05D04FF0FF300DB0BDE8F2
:1025B000F08FFFE74046F9E7E90701D108F101088C
:1025C00006444FF0000B7DE6CCCCCC0C7F2801D923
:1025D000002208E0064A02EB5002C007127800D140
:1025E000120902F00F0201209040084070470000DD
:1025F0007E2800080FB4054B10B503A9044A0298C1
:1026000000F02CF810BC5DF814FB0000BD050008BC
:10261000340000200FB4084B10B504A902AA039897
:1026200000F01CF8044602A9002000F0F1F8204652
:1026300010BC5DF814FB00001128000802E008C877
:10264000121F08C1002AFAD170477047002001E02C
:1026500001C1121F002AFBD1704700002DE9FF4F76
:102660008BB005469A460F460026C7E0252837D18D
:1026700000246D1C654AA14601212B78203B01FAFC
:1026800003F0104202D004436D1CF6E728782E2890
:1026900017D115F8010F44F004042A280ED06FF06A
:1026A0002F022878A0F1300109290AD809EB890105
:1026B00002EB410100EB01096D1CF2E757F8049BA6
:1026C0006D1C287869283ED006DC00286FD063286E
:1026D0000CD0642804D136E0732810D075284CD073
:1026E00052460D99904706F1010686E001CF8DF81C
:1026F000000000208DF80100E846012003E057F8B3
:10270000048B4FF0FF3061074FF0000401D40AE062
:10271000641C4C450DDA8442FADB18F804100029D9
:10272000F6D106E0641C8442FCDB18F80410002992
:10273000F8D1264404E018F8010B52460D99904751
:10274000641EF8D259E001CF4FF00A0B002804DADA
:10275000C0F100004FF02D0102E0210504D52B212E
:102760008DF82410012104E0E10701D02021F7E7D2
:1027700000210DF1200808910AE001CF4FF00A0B6B
:10278000F6E75946FFF72BFD01F1300208F8012D5D
:102790000028F6D1ADEB080000F1200B600701D452
:1027A0004FF00109D94503DDA9EB0B0001E029E059
:1027B00000208146002406E009A85246005D0D99DC
:1027C0009047761C641C08988442F5DB04E03020B6
:1027D00052460D999047761CB9F10001A9F1010903
:1027E000F5DC05E018F8010B52460D999047761C70
:1027F000BBF10001ABF1010BF4DC6D1C2878002863
:102800007FF434AF0FB03046BDE8F08F09280100E7
:102810000A68531C0B601070704700000D0AC7EB6C
:10282000CAE4C8EBC4DCC1ACBDD3B5BD496E7465A8
:10283000726E6574B5C457694669C3FBB3C6BACD39
:10284000C3DCD4BFA3ACCAE4C8EBB8F1CABDCEAAFE
:10285000A3BAC3FBB3C6D7D6B7FB2BD3A2CEC4B69D
:10286000BABAC52BC3DCD4BFD7D6B7FB2BBFD5B8FC
:10287000F1A3ACB5E3BBF7B7A2CBCD0D0A00DDDD0C
:10288000DDDDDCBBBBDDDDDDDDDDDDDDDDDD988857
:102890008888888888887777777777888888855543
:1028A00055566666666666666666666888888333B9
:1028B000333222222222222222222228888D000044
:1028C000E0280008000000203C0000003C26000832
:1028D0001C2900083C000020042800004C260008A9
:1028E00000A24A04000000000000000001020304EE
:1028F00006070809000000000000000001020304B0
:10290000010203040607080902040608000000008B
:0C291000000000000000000000000000BB
:0400000508000131BD
:00000001FF
